:020000040800F2
:1000000000800120450300081D0300081F030008AD
:100010002103000823030008250300080000000056
:10002000000000000000000000000000270300089E
:1000300029030008000000002B0300082D0300081E
:100040009503000895030008950300089503000830
:100050009503000895030008950300089503000820
:100060009503000895030008950300089503000810
:100070009503000895030008950300089503000800
:1000800095030008950300089503000895030008F0
:1000900095030008950300089503000895030008E0
:1000A00095030008950300089503000895030008D0
:1000B00095030008950300089503000895030008C0
:1000C00095030008950300089503000895030008B0
:1000D00095030008950300089503000895030008A0
:1000E0009503000895030008950300089503000890
:1000F0009503000895030008950300089503000880
:10010000950300089503000895030008950300086F
:10011000950300089503000895030008950300085F
:10012000950300089503000895030008950300084F
:10013000950300089503000895030008950300083F
:10014000950300089503000895030008950300082F
:10015000950300089503000895030008950300081F
:10016000950300089503000895030008950300080F
:10017000950300089503000895030008000000009F
:08018000950300089503000837
:1001880010B5054C237833B9044B13B10448AFF3C9
:1001980000800123237010BD0C0000200000000027
:1001A8001C0F000808B5034B1BB103490348AFF304
:1001B800008008BD00000000100000201C0F00088F
:1001C80000B597B04422002105A800F09BFE142238
:1001D8000021684600F096FE4FF4007000F022FA05
:1001E80008B172B6FEE7102305930123CDE90B3061
:1001F8000F90602305A80D9300F0DAFA014608B1C4
:1002080072B6FEE70F23CDE90030CDE90200049075
:10021800684600F04DFD08B172B6FEE717B05DF80C
:1002280004FB000000B589B000F012FEFFF7C8FF1C
:100238001422002103A800F065FE284BDA6C42F076
:100248000402DA64DA6C02F004020192019ADA6CB0
:1002580042F00102DA64DB6C03F00103002202932E
:1002680021214FF090400024029B00F0CDF94FF47B
:1002780000531B48059403A9CDE9033400F0E0F8C6
:100288002122012303A94FF09040CDE90544CDE98F
:10029800032300F0D5F8124C012211464FF090408C
:1002A80000F0B2F9C82000F0F5FD012100224FF05E
:1002B800904000F0A9F94FF4487000F0EBFD4FF4BE
:1002C8000051204600F09AF930B9012220214FF060
:1002D800904000F099F9DFE70022F7E700100240AC
:1002E800000800480A4B1A6E42F001021A661A6E9C
:1002F80082B002F001020092009A9A6D42F0805298
:100308009A659B6D03F080530193019B02B070477F
:1003180000100240FEE7FEE7FEE7FEE7FEE7704753
:100328007047704700F0A4BD034AD2F8883043F400
:100338007003C2F88830704700ED00E0DFF834D071
:10034800FFF7F2FF0C480D490D4A002302E0D4588C
:10035800C4500433C4188C42F9D30A4A0A4C002307
:1003680001E013600432A242FBD300F0A7FDFFF7BF
:1003780059FFFEE700800120000000200C0000204B
:100388007C0F00080C0000202C000020FEE7000075
:100398000749CA6822F4E0620302120403F4E06326
:1003A800120C134343F0BF6343F40033CB60704730
:1003B80000ED00E0164B30B5DC68C4F30224C4F14C
:1003C8000705231D042D28BF0425062B4FF0FF33F6
:1003D8008CBF033C002403FA05F521EA0501A3407C
:1003E80022EA0302A140002841EA0203ACBF00F15F
:1003F8006040084A4FEA0313B8BF00F00F00DBB2B1
:10040800AABF00F56140135480F8003330BD00BF27
:1004180000ED00E014ED00E00138B0F1807F0BD270
:100428004FF0E023054A5861F02182F8231000209C
:10043800072298611A6170470120704700ED00E0BB
:100448002DE9F74FDFF8B091694C00230A6832FABA
:1004580003F502D103B0BDE8F08F4FF0010E0EFA9C
:1004680003FE1EEA020200F090804D6805F00306C4
:100478004FEA43084FF0030C771E0CFA08FC012FD3
:100488006FEA0C0C00F28380876807EA0C0ACF68D1
:1004980007FA08F747EA0A078760476827EA0E0E4F
:1004A800C5F300179F4047EA0E074760C76807EA89
:1004B8000C0E8F6807FA08F747EA0E07022EC76086
:1004C80071D0076806FA08F607EA0C07374315F4EF
:1004D800403F076059D0D9F8606046F00106C9F876
:1004E8006060D9F8606023F0030707F1804706F0E1
:1004F800010607F58037019603F0030E019EBE68DA
:100508004FEA8E0E4FF00F0C0CFA0EFCB0F1904F24
:1005180026EA0C0C5FD0374EB0425ED006F58066F6
:10052800B0425CD006F58066B0425AD006F58066C7
:10053800B04258D006F58066B04256D006F58066BF
:10054800B0420CBF0626072606FA0EF646EA0C0647
:10055800BE60A668D74315F4801F0CBF3E40164303
:10056800A660E66815F4001F0CBF3E401643E6601F
:10057800666815F4003F0CBF3E4016436660266867
:10058800ED0354BF3E401643266001335EE7032E59
:100598008CD1C76A27EA0E0EC5F3C0079F4047EA09
:1005A8000E07C7628DE74FEAD30A00EB8A0A03F009
:1005B800070BDAF820704FEA8B0B4FF00F0E0EFA8C
:1005C8000BFE27EA0E0E0F6907FA0BF747EA0E072C
:1005D800CAF8207075E70026B6E70126B4E70226B8
:1005E800B2E70326B0E70426AEE70526ACE700BF6E
:1005F8000004014000040048001002400369194249
:1006080014BF0120002070470AB1816170478162E0
:1006180070470000024B186800F4C060704700BFC4
:1006280000700040174A1368B0F5007F03F4C063F8
:100638001DD1B3F5007F01D100207047136823F462
:10064800C06343F4007313600F4B1B6832214B43A4
:100658000E49B3FBF1F301335169490500D523B9BC
:1006680053695B05E8D503207047013BF4E7B3F510
:10067800806F1FBF136823F4C06343F48063136063
:10068800DAE700BF007000400000002040420F0081
:1006980037B51E4DAB6DDA00044618D5FFF7BAFF23
:1006A800B0F5007F23D1802C29D9A02C8CBF022043
:1006B8000120174A136823F00703034313601368E4
:1006C80003F00703181A18BF012003B030BDAB6D43
:1006D80043F08053AB65AB6D03F080530193019BEE
:1006E800FFF798FFAB6D23F08053AB65D8E7802CFC
:1006F80007D808D0A4F1700358425841D9E7002020
:10070800D7E70320D5E70220D3E700BF0010024057
:1007180000200240224B9A68D96812F00C0205D0DA
:100728000C2A15D101F00301012918D119681D48B7
:10073800090755BFD3F894101968C1F30321C1F311
:10074800031150F821004AB30C2A09D00020704741
:10075800042A22D0082A144818BF00207047002015
:10076800DA6802F00302022A15D00F49032A08BFEB
:100778000846D968DA68C2F306224243D868C0F34B
:100788004160C1F30211013001314000B2FBF1F2C6
:10079800B2FBF0F070470548EBE70448704700BF2C
:1007A80000100240440F000800127A000024F400F0
:1007B8002DE9F743054618B9012003B0BDE8F083D9
:1007C800924C0368A668E768DB0606F00C0607F09B
:1007D80003073DD51EB10C2E66D1012F64D12368C5
:1007E800980702D5AB69002BE6D02368286A190759
:1007F80056BFD4F8943023681B0903F0F0039842DD
:100808003BD9FFF745FF0028D6D1236843F00803FA
:10081800236023682A6A23F0F00313432360636884
:10082800EA6923F47F4343EA02236360FFF772FF18
:10083800A368774AC3F30313D35C03F01F03D840BC
:10084800744B1860744B186800F0DCFA0028B4D1B7
:100858002B68D8075FD42B68990700F19E802B6816
:10086800180700F1DB802B68590700F10181AB6A9A
:10087800002B40F06A8100209FE7236843F00803BB
:100888002360236823F0F003034323606368EA6965
:1008980023F47F4343EA02236360002EC6D1FFF7A7
:1008A800F7FE0028C2D087E7AB691BB3236843F083
:1008B8000103236000F0E8FA804623689A0711D5FF
:1008C800236843F00803236023682A6A23F0F003AF
:1008D800134323606368EA6923F47F4343EA0223EE
:1008E8006360B5E700F0D0FAA0EB08000228E4D96D
:1008F800032062E7236823F00103236000F0C4FAB1
:10090800804623689B07A3D500F0BEFAA0EB080039
:100918000228F6D9ECE7082E03D00C2E08D1032FB5
:1009280006D123689A0396D56B68002B93D143E7C9
:100938006B68B3F5803F10D1236843F4803323609C
:1009480000F0A2FA804623689B0384D400F09CFA46
:10095800A0EB08006428F6D9CAE7B3F5A02F04D1A4
:10096800236843F480232360E6E7226822F4803278
:100978002260226822F480222260002BE0D100F05D
:1009880083FA8046236898037FF565AF00F07CFA08
:10099800A0EB08006428F5D9AAE7042E03D00C2E92
:1009A80010D1022F0ED12368590503D5EB68002B0F
:1009B8003FF402AF63682A6923F0F85343EA0263FD
:1009C80063604CE7EB687BB1236843F48073236072
:1009D80000F05AFA074623685A05EBD400F054FA97
:1009E800C01B0228F7D983E7236823F480732360A8
:1009F80000F04AFA074623685B057FF530AF00F040
:100A080043FAC01B0228F6D972E700BF0010024063
:100A1800340F000800000020080000206B699BB11B
:100A2800D4F8943043F00103C4F8943000F02CFA61
:100A38000746D4F894309A073FF515AF00F024FA2A
:100A4800C01B0228F5D953E7D4F8943023F00103EA
:100A5800C4F8943000F018FA0746D4F894309B078D
:100A68007FF501AF00F010FAC01B0228F5D93FE767
:100A7800A36DDF0029D4A36D43F08053A365A36D54
:100A880003F080530193019B4FF00108854F3B68A9
:100A9800D8051DD5AB68012B2BD1D4F8903043F085
:100AA8000103C4F8903000F0EFF941F288390746A5
:100AB800D4F890309A0742D5B8F1000F3FF4D7AE7A
:100AC800A36D23F08053A365D1E64FF00008DDE75E
:100AD8003B6843F480733B6000F0D6F981463B687D
:100AE800D905D7D400F0D0F9A0EB09000228F6D92F
:100AF800FEE6052B06D1D4F8903043F00403C4F881
:100B08009030CAE7D4F8902022F00102C4F890206F
:100B1800D4F8902022F00402C4F89020002BC2D10F
:100B280000F0B2F941F288390746D4F890309B07B3
:100B3800C2D500F0A9F9C01B4845F6D9D8E600F09F
:100B4800A3F9C01B4845B3D9D2E6022B40F08F80E9
:100B5800E368EA6A03F00301914224D1296B03F0A8
:100B680070020139B2EB011F1DD1696B03F4FE421B
:100B7800B2EB012F17D1AA6B073A03F4003118BF63
:100B8800012291420FD1EA6B520803F4C001013AE5
:100B9800B1EB425F07D12A6C520803F0C063013AF7
:100BA800B3EB426F4AD00C2E3FF406AE23685F01C8
:100BB8003FF502AE2368DE003FF5FEAD236823F063
:100BC8008073236000F060F90646236898012FD4EB
:100BD800E268354B1340EA6A13436A6B43EA02231F
:100BE8002A6B013A43EA0213AA6B120943EA424309
:100BF800EA6B5208013A43EA42532A6C5208013A16
:100C080043EA4263E360236843F080732360E36848
:100C180043F08073E36000F037F9054623689901D3
:100C28003FF529AE00F030F9401B0228F6D95FE6FF
:100C380000F02AF9801B0228C7D959E623689A01CF
:100C48003FF519AE236843F080732360E36843F0EF
:100C58008073E36000F018F9054623689B013FF5AF
:100C68000AAE00F011F9401B0228F6D940E60C2E16
:100C78003FF4A2AD236823F08073236000F004F9E9
:100C88000546236813F0007305D1E168074A0A4056
:100C9800E260184691E500F0F7F8401B0228F0D909
:100CA80026E600BF007000408C809DF9FCFFEEFE38
:100CB8002DE9F0410D46044610B90120BDE8F08148
:100CC8004B4A136803F007038B422CD3206886072E
:100CD80034D4C1073FD421688A0768D4444A1368CA
:100CE80003F00703AB426FD811F0040F414D77D1E1
:100CF8000B0706D5AB68226923F4605343EAC203A5
:100D0800AB60FFF707FDAB683B4AC3F30313BDE8CD
:100D1800F041D35C03F01F03D840384B1860384BC0
:100D2800186800F06FB8136823F007030B431360CB
:100D3800136803F007038B42BFD1C7E72D4AA668A3
:100D4800916801F0F0018E4281BF936823F0F003AF
:100D580033439360BDE76268264E032A33681AD18D
:100D680013F0007FA9D0B36823F003031343B360E3
:100D780000F08AF841F288380746B368626803F0E1
:100D88000C03B3EB820FA6D000F07EF8C01B4045E1
:100D9800F3D9032092E7022A02D113F4003FE1E7D6
:100DA80012B913F0020FDDE713F4806FDAE7114A86
:100DB800A668906800F0F00086423FBF936823F071
:100DC800F0033343936089E7136823F007032B4349
:100DD8001360136803F00703AB427FF46EAF83E739
:100DE800AB68E26823F4E0631343AB6080E700BFBD
:100DF8000020024000100240340F000800000020CC
:100E08000800002038B50F4B0546187808B90120AE
:100E180038BD0D4A4FF47A73B3FBF0F31068B0FB9A
:100E2800F3F0FFF7F9FA04460028F0D10F2DEED8B9
:100E3800024629464FF0FF30FFF7BCFA034B204625
:100E48001D60E5E7040000200000002008000020E5
:100E580010B50320FFF79CFA0F20FFF7D3FF0446D5
:100E680018B9FFF73FFA204610BD0124FBE7000040
:100E7800034A044B11681B780B441360704700BF8A
:100E88002800002004000020014B1868704700BFAC
:100E98002800002038B50446FFF7F6FF631C1CBF86
:100EA800054B1B78054618BFE418FFF7EDFF431BF9
:100EB800A342FAD338BD00BF0400002070B50D4D21
:100EC8000D4C641BA4100026A64209D10B4D0C4CF6
:100ED80000F020F8641BA4100026A64205D170BDBE
:100EE80055F8043B98470136EEE755F8043B984718
:100EF8000136F2E7740F0008740F0008740F000839
:100F0800780F000802440346934200D1704703F863
:100F1800011BF9E7F8B500BFF8BC08BC9E4670474E
:0C0F2800F8B500BFF8BC08BC9E4670473E
:100F34000000000000000000010203040607080985
:100F4400A0860100400D0300801A060000350C0045
:100F540040420F0080841E0000093D0000127A0008
:100F64000024F40000366E010048E801006CDC0245
:040F7400AD010008C3
:040F780089010008E3
:0C0F7C0000093D00010000001000000012
:0400000508000345A7
:00000001FF
