:020000040800F2
:10000000008001204D070008250700082707000889
:10001000290700082B0700082D0700080000000032
:100020000000000000000000000000002F07000892
:1000300031070008000000003307000835070008FA
:100040009D0700089D0700089D0700089D07000800
:100050009D0700089D0700089D0700089D070008F0
:100060009D0700089D0700089D0700089D070008E0
:100070009D0700089D0700089D0700089D070008D0
:100080009D0700089D0700089D0700089D070008C0
:100090009D0700089D0700089D0700089D070008B0
:1000A0009D0700089D0700089D0700089D070008A0
:1000B0009D0700089D0700089D0700089D07000890
:1000C0009D0700089D0700089D0700089D07000880
:1000D0009D0700089D0700089D0700089D07000870
:1000E0009D0700089D0700089D0700089D07000860
:1000F0009D0700089D0700089D0700089D07000850
:100100009D0700089D0700089D0700089D0700083F
:100110009D0700089D0700089D0700089D0700082F
:100120009D0700089D0700089D0700089D0700081F
:100130009D0700089D0700089D0700089D0700080F
:100140009D0700089D0700089D0700089D070008FF
:100150009D0700089D0700089D0700089D070008EF
:100160009D0700089D0700089D0700089D070008DF
:100170009D0700089D0700089D070008000000007B
:080180009D0700089D0700081F
:1001880010B5054C237833B9044B13B10448AFF3C9
:1001980000800123237010BD0C0000200000000027
:1001A800B01E000808B5034B1BB103490348AFF361
:1001B800008008BD0000000010000020B01E0008EC
:1001C80053B94AB9002908BF00281CBF4FF0FF31B6
:1001D8004FF0FF3000F074B9ADF1080C6DE904CEB2
:1001E80000F006F8DDF804E0DDE9022304B070470A
:1001F8002DE9F047089D04468E46002B4DD18A42D2
:10020800944669D9B2FA82F252B101FA02F3C2F104
:10021800200120FA01F10CFA02FC41EA030E944095
:100228004FEA1C48210CBEFBF8F61FFA8CF708FBB6
:1002380016E341EA034306FB07F199420AD91CEB8E
:10024800030306F1FF3080F01F81994240F21C81C0
:10025800023E63445B1AA4B2B3FBF8F008FB103308
:1002680044EA034400FB07F7A7420AD91CEB04043D
:1002780000F1FF3380F00A81A74240F2078164440D
:10028800023840EA0640E41B00261DB1D440002392
:10029800C5E900433146BDE8F0878B4209D9002DF6
:1002A80000F0EF800026C5E9000130463146BDE880
:1002B800F087B3FA83F6002E4AD18B4202D38242EA
:1002C80000F2F980841A61EB030301209E46002D99
:1002D800E0D0C5E9004EDDE702B9FFDEB2FA82F2EE
:1002E800002A40F09280A1EB0C014FEA1C471FFA4C
:1002F8008CFE0126200CB1FBF7F307FB131140EA33
:1003080001410EFB03F0884208D91CEB010103F1FF
:10031800FF3802D2884200F2CB804346091AA4B2C1
:10032800B1FBF7F007FB101144EA01440EFB00FE95
:10033800A64508D91CEB040400F1FF3102D2A645FA
:1003480000F2BB800846A4EB0E0440EA03409CE799
:10035800C6F12007B34022FA07FC4CEA030C20FA46
:1003680007F401FA06F31C43F9404FEA1C4900FA66
:1003780006F3B1FBF9F8200C1FFA8CFE09FB1811E3
:1003880040EA014108FB0EF0884202FA06F20BD956
:100398001CEB010108F1FF3A80F08880884240F2A6
:1003A8008580A8F102086144091AA4B2B1FBF9F0EA
:1003B80009FB101144EA014100FB0EFE8E4508D9E5
:1003C8001CEB010100F1FF346CD28E456AD902386A
:1003D800614440EA0840A0FB0294A1EB0E01A1424F
:1003E800C846A64656D353D05DB1B3EB080261EBBD
:1003F8000E0101FA07F722FA06F3F1401F43C5E997
:10040800007100263146BDE8F087C2F12003D840CC
:100418000CFA02FC21FA03F3914001434FEA1C470E
:100428001FFA8CFEB3FBF7F007FB10360B0C43EA00
:10043800064300FB0EF69E4204FA02F408D91CEBB0
:10044800030300F1FF382FD29E422DD902386344AE
:100458009B1B89B2B3FBF7F607FB163341EA03414E
:1004680006FB0EF38B4208D91CEB010106F1FF389D
:1004780016D28B4214D9023E6144C91A46EA004694
:1004880038E72E46284605E70646E3E61846F8E626
:100498004B45A9D2B9EB020864EB0C0E0138A3E76F
:1004A8004646EAE7204694E74046D1E7D0467BE750
:1004B800023B614432E7304609E76444023842E7C8
:1004C800704700BF034613F8012B002AFBD1181A06
:1004D8000138704700B597B04422002105A801F003
:1004E800DBFC14220021684601F0D6FC4FF40070B2
:1004F80000F09CFA08B172B6FEE7102305930123B9
:10050800CDE90B300F90602305A80D9300F046FE4F
:10051800014608B172B6FEE70F23CDE90030CDE9F8
:1005280002000490684601F0B9F808B172B6FEE717
:1005380017B05DF804FB000000B589B001F052FC6B
:10054800FFF7C8FF1422002103A801F0A5FC404BC7
:10055800DA6C42F00402DA64DA6C02F00402019206
:10056800019ADA6C42F00102DA64DB6C03F00103F1
:100578000022029321214FF090400024029B00F0BA
:1005880047FA4FF400533348059403A9CDE90334DF
:1005980000F05AF90123212203A94FF09040CDE938
:1005A8000323CDE9054400F04FF92B482B4904619A
:1005B8004FF4E133C0E900130C23C0E90244C0E959
:1005C8000534C0E90744446201F0B7FB08B172B6CC
:1005D800FEE7234B03AA03F1080518685968144677
:1005E80003C40833AB422246F7D1998818689B792F
:1005F8002060A180A37103A8FFF764FF4FF0FF33C9
:1006080082B203A91448134C01F00AFB01221146D7
:100618004FF0904000F0FCF9C82001F005FC0121E2
:1006280000224FF0904000F0F3F94FF4487001F0C9
:10063800FBFB4FF40051204600F0E4F930B90122E9
:1006480020214FF0904000F0E3F9DFE70022F7E7C0
:100658000010024000080048280000200044004024
:10066800C81E000872B6FEE70A4B1A6E42F0010275
:100678001A661A6E82B002F001020092009A9A6D10
:1006880042F080529A659B6D03F080530193019B61
:1006980002B070470010024010B5AAB004461422F8
:1006A800002103A801F0F8FB8822002108A801F026
:1006B800F3FB2268174B9A4229D1022308A8089312
:1006C80000F0F0FA08B1FFF7CDFF134B9A6D42F432
:1006D80000329A659A6D02F400320192019ADA6C3E
:1006E80042F00102DA64DB6C03F001030293029B1F
:1006F8000C2202230021CDE903230323CDE90513AE
:100708004FF09040072303A9079300F09DF82AB003
:1007180010BD00BF0044004000100240FEE7FEE7A5
:10072800FEE7FEE7FEE770477047704701F06ABBD7
:10073800034AD2F8883043F47003C2F8883070470F
:1007480000ED00E0DFF834D0FFF7F2FF0C480D4968
:100758000D4A002302E0D458C4500433C4188C4214
:10076800F9D30A4A0A4C002301E013600432A2427A
:10077800FBD301F06DFBFFF7DFFEFEE700800120F1
:10078800000000200C000020401F00080C00002082
:10079800B0000020FEE700000749CA6822F4E062C2
:1007A8000302120403F4E063120C134343F0BF6323
:1007B80043F40033CB60704700ED00E0164B30B5D2
:1007C800DC68C4F30224C4F10705231D042D28BFE7
:1007D8000425062B4FF0FF338CBF033C002403FA9B
:1007E80005F521EA0501A34022EA0302A1400028F9
:1007F80041EA0203ACBF00F16040084A4FEA031324
:10080800B8BF00F00F00DBB2AABF00F56140135477
:1008180080F8003330BD00BF00ED00E014ED00E0CB
:100828000138B0F1807F0BD24FF0E023054A5861C0
:10083800F02182F823100020072298611A6170477E
:100848000120704700ED00E02DE9F74FDFF8B09187
:10085800694C00230A6832FA03F502D103B0BDE8F7
:10086800F08F4FF0010E0EFA03FE1EEA020200F0AE
:1008780090804D6805F003064FEA43084FF0030CDB
:10088800771E0CFA08FC012F6FEA0C0C00F283802B
:10089800876807EA0C0ACF6807FA08F747EA0A07E1
:1008A8008760476827EA0E0EC5F300179F4047EA9E
:1008B8000E074760C76807EA0C0E8F6807FA08F743
:1008C80047EA0E07022EC76071D0076806FA08F6D5
:1008D80007EA0C07374315F4403F076059D0D9F8A9
:1008E800606046F00106C9F86060D9F8606023F0DE
:1008F800030707F1804706F0010607F580370196E0
:1009080003F0030E019EBE684FEA8E0E4FF00F0CE7
:100918000CFA0EFCB0F1904F26EA0C0C5FD0374E63
:10092800B0425ED006F58066B0425CD006F58066BF
:10093800B0425AD006F58066B04258D006F58066B7
:10094800B04256D006F58066B0420CBF0626072690
:1009580006FA0EF646EA0C06BE60A668D74315F4FA
:10096800801F0CBF3E401643A660E66815F4001FC2
:100978000CBF3E401643E660666815F4003F0CBFA6
:100988003E40164366602668ED0354BF3E4016435A
:10099800266001335EE7032E8CD1C76A27EA0E0E64
:1009A800C5F3C0079F4047EA0E07C7628DE74FEAC5
:1009B800D30A00EB8A0A03F0070BDAF820704FEA33
:1009C8008B0B4FF00F0E0EFA0BFE27EA0E0E0F6977
:1009D80007FA0BF747EA0E07CAF8207075E70026F2
:1009E800B6E70126B4E70226B2E70326B0E70426F5
:1009F800AEE70526ACE700BF00040140000400484C
:100A0800001002400369194214BF012000207047FA
:100A18000AB181617047816270470000024B186813
:100A280000F4C060704700BF00700040174A1368A8
:100A3800B0F5007F03F4C0631DD1B3F5007F01D189
:100A480000207047136823F4C06343F400731360F5
:100A58000F4B1B6832214B430E49B3FBF1F30133B3
:100A68005169490500D523B953695B05E8D50320C9
:100A78007047013BF4E7B3F5806F1FBF136823F499
:100A8800C06343F480631360DAE700BF007000407E
:100A98000000002040420F00F8B5434C0368E268AC
:100AA800054690070E4629D0E26802F003029A42F2
:100AB80078D1002A76D0E3686A68C3F30213013359
:100AC80093426FD1236823F08063236001F0A6F975
:100AD800074623681A0130D4AB681F02A6B3012E5B
:100AE8004DD12A6921695208531E21F4C00222F40B
:100AF800FE423A4342EA4352226130E0022B11D0CF
:100B0800032B13D0012B4DD1226812F0020F49D0CC
:100B1800E0686A6820F07300013A184340EA02105E
:100B2800E060CFE7226812F4806FF0E72268910353
:100B3800EED4226812F4802FE9E701F06FF9C01BA8
:100B48000228C6D90320F8BD2169EB6821F41F31BA
:100B580021F440711B09394341EA4341216123686B
:100B680043F08063236001F059F9064623681B01AE
:100B780012D52369AA69134323610020E3E76B694F
:100B880022695B08591E22F0C06323F4FE433B43ED
:100B980043EA41632361E2E701F040F9801B022840
:100BA800E4D9CFE70120CEE700100240F8B53C4C6D
:100BB8000368E268054690070E4627D0E26802F00F
:100BC80003029A4269D1002A67D0E3686A68C3F3CE
:100BD80002130133934260D1236823F080532360CA
:100BE80001F01CF9074623689A002ED4AB68180256
:100BF80096B36369296923F0C063490823F4FE4367
:100C08000139034343EA4163636130E0022B11D0A9
:100C1800032B13D0012B40D1226812F0020F3CD0D5
:100C2800E0686A6820F07300013A184340EA02104D
:100C3800E060D1E7226812F4806FF0E72268910340
:100C4800EED4226812F4802FE9E701F0E7F8C01B20
:100C58000228C8D90320F8BD6269EB6822F41F3264
:100C680022F440721B09024342EA4342626123684C
:100C780043F08053236001F0D1F8064623689B00B7
:100C880005D563696A69134363610020E3E701F0EE
:100C9800C5F8801B0228F1D9DCE70120DBE700BF9B
:100CA800001002402DE9F347066816F40066044672
:100CB80009D0416EB1F5000F22D013D831B3B1F588
:100CC800800F2AD001262368D80409D5A16EB1F176
:100CD800007F2CD026D881B3B1F1807F70D0012657
:100CE800354639E0B1F5400FECD13B4A616ED2F898
:100CF800883023F440030B43C2F888300026E2E72B
:100D0800354AD36843F48033D360EEE70430FFF705
:100D1800C3FE06460028D6D1E7E700212030FFF7BA
:100D280045FFF6E7B1F1407FD9D1354609E02A4AB7
:100D3800D36843F48033D360F7E7201DFFF7ACFE98
:100D48000546002D42D1244AA16ED2F8883023F0FE
:100D580040730B43C2F888302368990340F15E81E1
:100D68001D4FBB6DDA0033D4BB6D43F08053BB65B8
:100D7800BB6D03F080530193019B4FF00108DFF82E
:100D88005C90D9F8003043F48073C9F8003001F062
:100D980045F88246D9F80030DB0521D53DBBD7F8A8
:100DA800903013F4407340F00F81D7F89030D4F8A6
:100DB800842023F440731343C7F89030354616E077
:100DC800002104F12000FFF7F1FEB9E72E46C3E742
:100DD8004FF00008D3E700BF001002400070004049
:100DE80001F01CF8A0EB0A000228D3D90325B8F1BA
:100DF800000F03D0BB6D23F08053BB652368DA076F
:100E080008D59D49A06BD1F8882022F0030202433F
:100E1800C1F888209F0708D59749E06BD1F888204A
:100E280022F00C020243C1F888205E0708D59249D7
:100E3800206CD1F8882022F030020243C1F88820C3
:100E4800180708D58C49606CD1F8882022F0C002B8
:100E58000243C1F88820D90608D58749A06CD1F883
:100E6800882022F440720243C1F888209A0608D5E7
:100E78008149E06CD1F8882022F440620243C1F82D
:100E880088209F0508D57C49E06DD1F8882022F498
:100E980040220243C1F888205E0508D57649206EB5
:100EA800D1F8882022F440120243C1F8882058065D
:100EB80008D57149206DD1F8882022F440520243A8
:100EC800C1F88820190608D56B49606DD1F88820CB
:100ED80022F440420243C1F88820DA0508D5664961
:100EE800A06DD1F8882022F440320243C1F888204E
:100EF8009B0410D5604AE16ED2F8883023F0406335
:100F08000B43B1F1006FC2F8883040F08980D36894
:100F180043F48013D36023681F0310D5564A216F0A
:100F2800D2F8883023F040630B43B1F1006FC2F868
:100F3800883040F08180D36843F48013D3602368FD
:100F48005E030FD54C4A616FD2F8883023F04063B6
:100F58000B43B1F1006FC2F8883079D1D36843F4FC
:100F68008013D3602368580412D54349A26FD1F87F
:100F7800883023F040531343B2F1805FC1F88830C2
:100F880071D10221201DFFF787FD002818BF0546F3
:100F98002268110408D53849E06FD1F8883023F069
:100FA80080430343C1F88830D30309D5324AD4F8C3
:100FB8008010D2F8883023F000430B43C2F8883001
:100FC800284602B0BDE8F087D4F8842093423FF465
:100FD800ECAED7F89020D7F8903043F48033C7F8B8
:100FE8009030D7F8903022F4407123F48033D00742
:100FF800C7F89030C7F890107FF5D7AE00F00EFF15
:1010080041F288390546D7F8903099073FF5CDAEBB
:1010180000F004FF401B4845F5D9E7E63546EDE604
:10102800B1F1806F7FF477AF0121201DFFF734FD08
:10103800002818BF05466EE7B1F1806F7FF47FAFD7
:101048000121201DFFF728FD002818BF054676E777
:10105800B1F1806F86D10121201DFFF71DFD002809
:1010680018BF05467EE7B2F1005F91D1022104F175
:101078002000FFF79BFD88E70010024037B51E4DA2
:10108800AB6DDA00044618D5FFF7C8FCB0F5007F51
:1010980023D1802C29D9A02C8CBF02200120174AEB
:1010A800136823F0070303431360136803F007036F
:1010B800181A18BF012003B030BDAB6D43F0805340
:1010C800AB65AB6D03F080530193019BFFF7A6FC62
:1010D800AB6D23F08053AB65D8E7802C07D808D0D8
:1010E800A4F1700358425841D9E70020D7E70320FC
:1010F800D5E70220D3E700BF0010024000200240DD
:10110800224B9A68D96812F00C0205D00C2A15D126
:1011180001F00301012918D119681D48090755BFB5
:10112800D3F894101968C1F30321C1F3031150F8DF
:1011380021004AB30C2A09D000207047042A22D083
:10114800082A144818BF002070470020DA6802F007
:101158000302022A15D00F49032A08BF0846D96896
:10116800DA68C2F306224243D868C0F34160C1F38B
:101178000211013001314000B2FBF1F2B2FBF0F094
:1011880070470548EBE70448704700BF001002406D
:10119800F01E000800127A000024F4002DE9F7433D
:1011A800054618B9012003B0BDE8F083924C0368E6
:1011B800A668E768DB0606F00C0607F003073DD5CE
:1011C8001EB10C2E66D1012F64D12368980702D571
:1011D800AB69002BE6D02368286A190756BFD4F8F4
:1011E800943023681B0903F0F00398423BD9FFF7BA
:1011F80045FF0028D6D1236843F0080323602368FD
:101208002A6A23F0F003134323606368EA6923F42E
:101218007F4343EA02236360FFF772FFA368774ABC
:10122800C3F30313D35C03F01F03D840744B186057
:10123800744B186800F0B0FD0028B4D12B68D807AB
:101248005FD42B68990700F19E802B68180700F17E
:10125800DB802B68590700F10181AB6A002B40F055
:101268006A8100209FE7236843F00803236023680E
:1012780023F0F003034323606368EA6923F47F43A0
:1012880043EA02236360002EC6D1FFF7F7FE002869
:10129800C2D087E7AB691BB3236843F0010323601F
:1012A80000F0BCFD804623689A0711D5236843F0F7
:1012B8000803236023682A6A23F0F003134323609A
:1012C8006368EA6923F47F4343EA02236360B5E76E
:1012D80000F0A4FDA0EB08000228E4D9032062E78F
:1012E800236823F00103236000F098FD80462368FB
:1012F8009B07A3D500F092FDA0EB08000228F6D9C1
:10130800ECE7082E03D00C2E08D1032F06D1236852
:101318009A0396D56B68002B93D143E76B68B3F5B6
:10132800803F10D1236843F48033236000F076FDBA
:10133800804623689B0384D400F070FDA0EB08006E
:101348006428F6D9CAE7B3F5A02F04D1236843F47B
:1013580080232360E6E7226822F480322260226834
:1013680022F480222260002BE0D100F057FD804655
:10137800236898037FF565AF00F050FDA0EB0800E7
:101388006428F5D9AAE7042E03D00C2E10D1022F19
:101398000ED12368590503D5EB68002B3FF402AF43
:1013A80063682A6923F0F85343EA026363604CE7F1
:1013B800EB687BB1236843F48073236000F02EFD53
:1013C800074623685A05EBD400F028FDC01B022805
:1013D800F7D983E7236823F48073236000F01EFDA8
:1013E800074623685B057FF530AF00F017FDC01B8B
:1013F8000228F6D972E700BF00100240D71E000885
:1014080000000020080000206B699BB1D4F89430DC
:1014180043F00103C4F8943000F000FD0746D4F807
:1014280094309A073FF515AF00F0F8FCC01B02286E
:10143800F5D953E7D4F8943023F00103C4F8943075
:1014480000F0ECFC0746D4F894309B077FF501AF19
:1014580000F0E4FCC01B0228F5D93FE7A36DDF00CC
:1014680029D4A36D43F08053A365A36D03F0805383
:101478000193019B4FF00108854F3B68D8051DD5A6
:10148800AB68012B2BD1D4F8903043F00103C4F89A
:10149800903000F0C3FC41F288390746D4F8903008
:1014A8009A0742D5B8F1000F3FF4D7AEA36D23F0E9
:1014B8008053A365D1E64FF00008DDE73B6843F4AD
:1014C80080733B6000F0AAFC81463B68D905D7D4FD
:1014D80000F0A4FCA0EB09000228F6D9FEE6052BD3
:1014E80006D1D4F8903043F00403C4F89030CAE72A
:1014F800D4F8902022F00102C4F89020D4F890206B
:1015080022F00402C4F89020002BC2D100F086FC1F
:1015180041F288390746D4F890309B07C2D500F0CD
:101528007DFCC01B4845F6D9D8E600F077FCC01B07
:101538004845B3D9D2E6022B40F08F80E368EA6AC7
:1015480003F00301914224D1296B03F070020139A1
:10155800B2EB011F1DD1696B03F4FE42B2EB012F00
:1015680017D1AA6B073A03F4003118BF0122914240
:101578000FD1EA6B520803F4C001013AB1EB425FA4
:1015880007D12A6C520803F0C063013AB3EB426FEB
:101598004AD00C2E3FF406AE23685F013FF502AE39
:1015A8002368DE003FF5FEAD236823F080732360D7
:1015B80000F034FC0646236898012FD4E268354BC6
:1015C8001340EA6A13436A6B43EA02232A6B013A1F
:1015D80043EA0213AA6B120943EA4243EA6B520830
:1015E800013A43EA42532A6C5208013A43EA4263F9
:1015F800E360236843F080732360E36843F08073FB
:10160800E36000F00BFC0546236899013FF529AE1D
:1016180000F004FC401B0228F6D95FE600F0FEFB50
:10162800801B0228C7D959E623689A013FF519AEED
:10163800236843F080732360E36843F08073E360BA
:1016480000F0ECFB054623689B013FF50AAE00F06D
:10165800E5FB401B0228F6D940E60C2E3FF4A2AD6C
:10166800236823F08073236000F0D8FB05462368C5
:1016780013F0007305D1E168074A0A40E260184692
:1016880091E500F0CBFB401B0228F0D926E600BF0D
:10169800007000408C809DF9FCFFEEFE2DE9F041C2
:1016A8000D46044610B90120BDE8F0814B4A136885
:1016B80003F007038B422CD32068860734D4C10774
:1016C8003FD421688A0768D4444A136803F00703A3
:1016D800AB426FD811F0040F414D77D10B0706D5F7
:1016E800AB68226923F4605343EAC203AB60FFF797
:1016F80007FDAB683B4AC3F30313BDE8F041D35C75
:1017080003F01F03D840384B1860384B186800F0B6
:1017180043BB136823F007030B431360136803F0FC
:1017280007038B42BFD1C7E72D4AA668916801F02D
:10173800F0018E4281BF936823F0F0033343936036
:10174800BDE76268264E032A33681AD113F0007F7A
:10175800A9D0B36823F003031343B36000F05EFB22
:1017680041F288380746B368626803F00C03B3EBAC
:10177800820FA6D000F052FBC01B4045F3D90320CE
:1017880092E7022A02D113F4003FE1E712B913F0FD
:10179800020FDDE713F4806FDAE7114AA668906854
:1017A80000F0F00086423FBF936823F0F003334314
:1017B800936089E7136823F007032B4313601368CA
:1017C80003F00703AB427FF46EAF83E7AB68E268D0
:1017D80023F4E0631343AB6080E700BF00200240BE
:1017E80000100240D71E000800000020080000205A
:1017F800054B064A9B68C3F30223D35C044A10686E
:1018080003F01F03D840704700100240E71E00088D
:1018180000000020054B064A9B68C3F3C223D35C33
:10182800044A106803F01F03D840704700100240B4
:10183800E71E00080000002070B50446036821690F
:10184800A2681D68C0690A4361690A438F49024357
:1018580029400A431A605A68E16822F440520A4350
:101868005A608B4AA16993421CBF226A11439A6845
:1018780022F430620A439A60864A934217D1864B13
:10188800D3F8883003F00303013B022B00F2CF802A
:10189800824AD35CB0F5004F40F09980082B22D8DB
:1018A800DFE803F0D9C89321CE212121DD007C4A4D
:1018B800934206D1784B7B4AD3F8883003F00C0367
:1018C800E7E7794A934219D1734BD3F8883003F08C
:1018D8003003202B00F0B78007D8002B00F0B88029
:1018E800102B00F0AA8001204EE0302BFBD1B0F580
:1018F800004F00F0B4804FF4004083E06B4A9342FD
:101908000FD1654BD3F8883003F0C003802B00F06B
:101918009A8004D8002B00F09B80402BE1E7C02B75
:10192800E4E7634A934212D15B4BD3F8883003F45F
:101938004073B3F5007F00F0868005D8002B00F0D7
:101948008780B3F5807FCCE7B3F5407FCEE7504A78
:101958009342C8D1504BD3F8883003F44063B3F5B1
:10196800006F15D006D85BB1B3F5806FBBD1FFF718
:10197800C7FB07E0B3F5406FB5D14FF4004008E06E
:10198800FFF736FF28B900200023C4E9193370BDDA
:101998004848626802EB42038342A4D8B0EB023F96
:1019A800A1D8510800258C464FF480762946E0FBE3
:1019B80006C12B466046FEF703FC3F4BA0F540727C
:1019C8009A4290D82368D860DDE73A4847E0082B68
:1019D80089D801A252F823F0051A00082B1A00082A
:1019E800551A0008EF180008311A0008EF18000807
:1019F800EF180008EF180008FF180008FFF7F8FEB6
:101A08000028C0D0626800EB5203B3FBF2F34FF634
:101A1800EF72A3F1100191423FF665AF2268D360DF
:101A2800B1E7FFF7F7FEEBE7FFF76AFBE8E7B0F58A
:101A3800004FF6D1FFF7EEFE0FE0B0F5004FF3D1FF
:101A4800FFF75EFB09E0B0F5004FBED01948D9E7B3
:101A5800B0F5004FD2D1FFF7CBFE002893D06268D3
:101A6800530803EB40004FF6EF73B0FBF2F0A0F120
:101A780010029A423FF637AF20F00F0322689BB25C
:101A8800C0F342001843D0607DE700BFF369FFEF61
:101A9800008000400038014000100240201F00086C
:101AA80000440040231F000800480040004C00404C
:101AB800005000400024F400FFFC0F00436ADA07DE
:101AC80010B506D50168846A4A6822F400322243B8
:101AD8004A609C0706D50168C46A4A6822F48032C5
:101AE80022434A60590706D50168046B4A6822F404
:101AF800802222434A601A0706D50168446B4A6867
:101B080022F4004222434A60DC0606D50168846B51
:101B18008A6822F4805222438A60990606D50168B1
:101B2800C46B8A6822F4005222438A605A060FD591
:101B38000168046C4A6822F480122243B4F5801FBD
:101B48004A6005D14A68446C22F4C00222434A60C4
:101B58001B0606D50268816C536823F400230B43E7
:101B6800536010BD2DE9F041DDF8188004460E469B
:101B780015461F462268D36936EA03030CBF0123C2
:101B88000023AB4201D0002025E0B8F1FF3FF2D09E
:101B980000F044F9C01B4045206802D8B8F1000F96
:101BA8001BD150E8003F23F4D07340E80032002AEC
:101BB800F7D100F1080353E8003F23F0010300F1D7
:101BC800080141E80032002AF3D12023A367E36724
:101BD80084F874200320BDE8F08103685A07C9D54A
:101BE800C3691B05C6D54FF40063036250E8003F84
:101BF80023F4D07340E80032002AF7D100F108033B
:101C080053E8003F23F0010300F1080141E80032E6
:101C1800002AF3D12023A367E367C4F88030D7E70D
:101C28002DE9FF419846836F202B04460E46174640
:101C38004ED100294AD0002A48D090F87430012BA0
:101C480046D0012380F8743000252123C0F8805045
:101C5800836700F0E3F8A268A4F85070B2F5805FDB
:101C68000346A4F8527003D122690AB935461646CC
:101C7800002284F87420B4F85220CDF8008092B283
:101C88003AB940212046FFF76DFF50B92023A367DA
:101C980008E00022802120460393FFF763FF039B9F
:101CA80018B1032004B0BDE8F08121685EB935F8A9
:101CB800022BC2F308020A85B4F85220013A92B204
:101CC800A4F85220D7E716F8012BF4E70120E9E73A
:101CD8000220E7E730B50446002585B0C0F88050FB
:101CE80000F09CF8226812681107034615D4226890
:101CF8001268520709D56FF07E4200924FF48001B6
:101D080000222046FFF72EFFA0B920230020A3675A
:101D180084F87400E36720660DE06FF07E4200925D
:101D280003902A464FF400112046FFF71BFF039B40
:101D38000028DCD0032005B030BD10B5044640B300
:101D4800836F1BB980F87430FEF7A6FC2268242341
:101D5800A367136823F0010313602046FFF76CFDA7
:101D6800012816D0636A13B12046FFF7A7FE23683F
:101D78005A6822F490425A609A6822F02A029A60BD
:101D88001A6842F0010220461A60BDE81040FFF7C9
:101D9800A1BF012010BD000038B50F4B05461878CB
:101DA80008B9012038BD0D4A4FF47A73B3FBF0F33C
:101DB8001068B0FBF3F0FEF733FD04460028F0D1BD
:101DC8000F2DEED8024629464FF0FF30FEF7F6FCFD
:101DD800034B20461D60E5E70400002000000020BA
:101DE8000800002010B50320FEF7D6FC0F20FFF7EF
:101DF800D3FF044618B9FEF737FC204610BD01246E
:101E0800FBE70000034A044B11681B780B4413607E
:101E1800704700BFAC00002004000020014B186888
:101E2800704700BFAC00002038B50446FFF7F6FF46
:101E3800631C1CBF054B1B78054618BFE418FFF749
:101E4800EDFF431BA342FAD338BD00BF04000020B6
:101E580070B50D4D0D4C641BA4100026A64209D187
:101E68000B4D0C4C00F020F8641BA4100026A64271
:101E780005D170BD55F8043B98470136EEE755F893
:101E8800043B98470136F2E7381F0008381F00085E
:101E9800381F00083C1F000802440346934200D143
:101EA800704703F8011BF9E7F8B500BFF8BC08BC98
:101EB8009E467047F8B500BFF8BC08BC9E46704700
:101EC80048656C6C6F20776F726C64210D0A000096
:101ED80000000000000000010203040607080900D2
:101EE8000000000102030400A0860100400D030069
:101EF800801A060000350C0040420F0080841E0046
:101F080000093D0000127A000024F40000366E013A
:101F18000048E801006CDC020402080010101004FC
:081F2800101010021010100847
:081F3000C8E2FF7F0100000080
:041F3800AD010008EF
:041F3C00890100080F
:0C1F400000093D0001000000100000003E
:040000050800074D9B
:00000001FF
